:020000040800F2
:1000000040200010B9060008B7060008B70600082F
:10001000B7060008B7060008B70600080000000091
:10002000000000000000000000000000B70600080B
:10003000B706000800000000B70600089509000890
:10004000B7060008B7060008B7060008B70600089C
:10005000B7060008B7060008B7060008B70600088C
:10006000B7060008B7060008B7060008B70600087C
:10007000B7060008B7060008B7060008B70600086C
:10008000B7060008B7060008B7060008B70600085C
:10009000B7060008B7060008B7060008B70600084C
:1000A000B7060008B7060008B7060008B70600083C
:1000B000B7060008B7060008B7060008B70600082C
:1000C000B7060008B7060008B7060008B70600081C
:1000D000B7060008B7060008B7060008B70600080C
:1000E000B7060008B7060008B7060008B7060008FC
:1000F000B7060008B7060008B7060008B7060008EC
:10010000B7060008B7060008B7060008B7060008DB
:10011000B7060008B7060008B7060008B7060008CB
:10012000B7060008B7060008B7060008B7060008BB
:10013000B7060008B7060008B7060008B7060008AB
:10014000B7060008B7060008B7060008B70600089B
:10015000B7060008B7060008B7060008B70600088B
:10016000B7060008B7060008B7060008B70600087B
:10017000B7060008B7060008B7060008B70600086B
:10018000B7060008B70600082DE9F04780EAE074DA
:10019000A4EBE07481EAE176A6EBE1764FEA144C39
:1001A0004FEA1648A4B2B6B206FB0CFA08FB04F9F3
:1001B000664306EB0947B74207EB0A444FEA1A4584
:1001C00034BF0126002605EB1945BC4238BF013675
:1001D00008FB0C55354470B169B10029D4BF00212A
:1001E00001210028D4BF084681F0010018B1644203
:1001F000ED4304B9013515601C60BDE8F08707B513
:1002000001AB6A46FFF7C0FF9DF80700009B40EA7C
:10021000032003B05DF804FB07B56A4601ABFFF7A6
:10022000B3FF0098801003B05DF804FB07B56A4681
:1002300001ABFFF7A9FF0098401003B05DF804FB85
:10024000034B5B79D3F1010338BF00234370704740
:10025000B8010020F0B516681C69A642D4BF00267C
:1002600001260EB9147A0CB15C6900E054681F686D
:100270005D6880EAE07CACEBE07CA445B8BF3D461D
:10028000002803DB0CBF0020012001E04FF0FF300D
:1002900045430D600EB1596901E0996821445160F0
:1002A00014605B7F1372F0BD2DE9F843464E474C56
:1002B0007379D4F80080464DD3F1010203F10103B4
:1002C000DBB238BF0022092B88BF0023D5F890008D
:1002D000B27141467371FFF792FFB2796B6812B148
:1002E000C01A3C4B18606768D5F894003946FFF790
:1002F00086FFB279AB6812B1C01A364B586095F8D8
:100300009C3013B1344B1E7804E00120082100F02A
:1003100029FB064695F89D3013B12F4B587803E022
:100320000120092100F01EFB2369D4F8289094F8DD
:100330002A209E42D4BF4FF0000C4FF0010C19F060
:10034000FF1F0ABF214BA96E5969BCF1000F0CBFFA
:1003500043460B4623601D4B0AB1AA6E01E09A6822
:100360000A445A61236A94F82B10184A9842D4BF61
:100370004FF000084FF0010819F0FF2F0ABF134B90
:10038000AB6F5B6A09B1A96F01E091691944B8F1DB
:10039000000F08BF3B466360E368A36095F899309F
:1003A00084F82830E369A36195F89B3084F82AC06B
:1003B00084F82B8084F829305162E6602661E06180
:1003C0002062BDE8F88300BFB80100204001002092
:1003D00000000020A00100209C0100202DE9F04138
:1003E000494C4A4D4A4B2968D4F888001960FFF7F8
:1003F0001DFF69688046D4F88C00FFF70DFFC0EB45
:10040000080706462069874203DA60698742A8BF69
:1004100038460028B8BF40423E4A3F4B3F49FFF7AD
:1004200019FF2B69E269934204DA374A126A9A4249
:10043000B8BF1A4600324FF0030018BF01220F2147
:1004400000F09CFA606A4644864204DA2E4B986AB1
:100450008642A8BF30460028B8BF4042304A314BE0
:100460003149FFF7F7FEAB68226B934204DA264A64
:10047000526B9A42B8BF1A4600324FF0030018BFC1
:1004800001220D2100F07AFAA06B874204DA1E4B9C
:10049000D86B8742A8BF3846244A254B2549FFF729
:1004A000D9FE6B69626C934204DA174A926C9A42E5
:1004B000B8BF1A4600324FF0030018BF01220E21C8
:1004C00000F05CFAE06C864204DA0F4B186D86424D
:1004D000A8BF3046184A194B1949FFF7BBFEEB6815
:1004E000A26D934204DA084AD26D9A42B8BF1A4606
:1004F00000324FF003004FF00C0118BF0122BDE89D
:10050000F04100F03BBA00BF00000020A001002035
:100510003C01002084010020E0000020B001002008
:100520006C010020A0000020A80100209001002004
:1005300000010020B401002078010020C00000204C
:10054000AC010020554B37B50025554C1D605D6052
:1005500029461822534800F0DFFA294620465C223B
:1005600000F0DAFA504B1D705D70504B03201D6097
:100570004FF400412B4600950195012200F0D0F97F
:1005800003200F21012200F0F9F92B460095019577
:1005900003204FF40051012200F0C2F903200D2185
:1005A000012200F0EBF92B460095019503204FF452
:1005B0008041012200F0B4F903200E21012200F055
:1005C000DDF92B460095019503204FF4805101225F
:1005D00000F0A6F903200C21012200F0CFF92A46F1
:1005E0002B460095019501204FF4807100F098F999
:1005F0002A462B460095019501204FF4007100F02A
:100600008FF92B4B1A682260DA686260D3F8EC200D
:10061000626493F8FC2084F84C20D3F8F820A2649C
:10062000D3F8AC20E26293F8BC2084F83420D3F8ED
:10063000B8202263D3F80C21226593F81C2184F89A
:100640005820D3F818216265D3F8CC20A26393F820
:10065000DC2084F84020D3F8D820E2631A6EA26030
:10066000E26093F89E2084F82A205A6E226193F863
:10067000982084F82820DA6E62611A6FA261E26124
:1006800093F89F2084F82B205A6F226293F89A20C7
:10069000DB6F84F82920636203B030BDB80100200D
:1006A00040010020A00100209C0100203C0100200E
:1006B000000000207047FEE708B500230C4A0D49F2
:1006C0009818884204D20C49595899500433F5E7D8
:1006D0000A480B494FF000028842B8BF40F8042B8B
:1006E000FFF6FAAF00F00EF8BDE8084000F0E8B9F8
:1006F0000000002034010020D40B00083401002049
:10070000C8010020374BD3F8882042F47002C3F8A8
:100710008820354B1A6842F001021A6000229A6064
:10072000196821F0847121F4803119602F495960D2
:10073000196882B021F480211960DA600092019278
:100740001A6842F480321A60274B1A6802F40032A9
:100750000192009A01320092019A1AB9009AB2F5F8
:10076000A06FF1D11B6813F4003318BF012301936C
:10077000019B012B05D01B4B4FF000629A6002B029
:100780007047194B1A6C42F080521A64184A11686B
:1007900041F4804111609A689A609A6842F400427C
:1007A0009A609A6842F4A0529A60124A5A601A6893
:1007B00042F080721A6019680B4A8901FBD50E4B12
:1007C00040F205611960936823F003039360936816
:1007D00043F002039360044B9B6803F00C03082B67
:1007E000F9D1C8E700ED00E00038024010300024E5
:1007F0000070004019544007003C0240174A184B53
:10080000916801F00C01042903D0082903D0154A8E
:1008100018E0154A16E05068516810F4800F5068CF
:1008200014BF114A0F4A01F03F01B2FBF1F20B492C
:100830004968C1F30141C0F38810013142434900C6
:10084000B2FBF1F21A60054A08499268C2F303123A
:10085000895C1A68CA401A60704700BF00380240BD
:10086000300100200024F40000127A002001002052
:100870002DE9F0410F68002301229A4002EA0705A2
:10088000954230D15A00032406689440E443264040
:1008900006600E79D0F800C006FA02F8013E48EA78
:1008A0000C0C012EC0F800C014D8866891F805C061
:1008B0002640866086680CFA02FC4CEA06068660D2
:1008C000466826EA050545608D7946689D40ADB2CB
:1008D00035434560C5682C40C460CD79C46805FACD
:1008E00002F22243C2600133102BC5D1BDE8F08172
:1008F000036919420CBF0020012070470AB101832F
:100900007047418370470000044B1A6B09B11043D4
:1009100001E022EA00001863704700BF003802407F
:10092000F7B50D460121044601FA00F016461F46B0
:10093000FFF7EAFF9DF820308DF806309DF824304F
:100940008DF80730064B009553F824008DF80460AD
:1009500069468DF80570FFF78BFF03B0F0BD00BF4F
:10096000B00B0008012303FA01F1034B89B253F8DD
:100970002000FFF7BDBF00BFB00B0008012303FA42
:1009800001F1034B89B253F82000FFF7B7BF00BF56
:10099000B00B000810B5084C23680BB900F056F8EE
:1009A000064A2368126801339342236002D3024B44
:1009B00000221A6010BD00BFC4010020C001002049
:1009C0001C4B1D4AD3ED007AF8EE677A27EE800AB9
:1009D000BCEEC00A10EE103AB3F1807F1AD3B8EE25
:1009E000407ADFED167AC7EE277AFCEEE77A17EE4B
:1009F000901A0131B3FBF1F3B3F1807F116015D28E
:100A00000F4A013B53600F4BF02183F82310002362
:100A1000936009E000211160094A013B5360094BD2
:100A2000F02083F82300916007231360064B002217
:100A30001A60704730010020C0010020FFFF7F4B8B
:100A400010E000E000ED00E0C401002073B5194C97
:100A500023785A1C2270264623B1174A237001219D
:100A6000116024E001A8FFF7EBFBFFF71DFC2378E2
:100A70009DF80520013B2370104B42B15A78511C60
:100A8000597022B10C495A70012008600FE05B7860
:100A90000A4D63B17378074C4BB901236370FFF7BC
:100AA0009DFC6B78013B6B706378013B637002B017
:100AB00070BD00BF36010020380100203401002045
:100AC00037B5FFF79BFE124B1C6800232360FFF72E
:100AD00039FD9FED100AFFF773FF2368D3F101037F
:100AE00038BF00238DF8073062B69DF8073003F059
:100AF000FF053BB12368D3F1010338BF00238DF814
:100B00000730F2E7FFF7D6FD72B6284603B030BDD6
:100B1000AC0B000817B7D138F0B4840743D0541E8B
:100B2000002A3ED0CDB2034603E0621E002C38D02E
:100B3000144603F8015B9A07F7D1032C2AD9CDB2EA
:100B400045EA05250F2C45EA054515D9A4F11007FE
:100B50003F0903F1100606EB07161A4615605560AB
:100B60009560D5601032B242F8D104F00F0401371D
:100B7000032C03EB07130DD91E462246043A032A21
:100B800046F8045BFAD8221F22F003020432134411
:100B900004F003042CB1C9B21C4403F8011BA342A6
:100BA000FBD1F0BC704714460346C6E7B8010020ED
:100BB000000002400004024000080240000C024015
:100BC000001002400014024000180240001C0240C5
:040BD00000200240BF
:100BD40000000000DC050000DC050000000000004F
:100BE400000000009CFFFFFF010000000100000066
:100BF40000000000000000009CFFFFFF0100000057
:100C0400010000000000000064000000000000007B
:100C1400010000000100000000000000640000006A
:100C240000000000010000000100000000000000BE
:100C340000000000000000000000000000000000B0
:100C440000000000000000000000000000000000A0
:100C5400020000000200000066666666666666665C
:100C640000000064000000640100010000000000B6
:100C7400000000000100000032000000000000003D
:100C8400F40100000000000000000000010000006A
:100C9400000000000100000032000000000000001D
:100CA400F40100000000000000000000010000004A
:100CB40000000000010000003200000000000000FD
:100CC400F40100000000000000000000010000002A
:100CD40000000000010000003200000000000000DD
:100CE400F40100000000000000000000010000000A
:100CF40000000000000000000102030406070809C8
:040D0400007A030A64
:04000005080006B930
:00000001FF
