:020000040800F2
:10000000402000108D0500088B0500088B050008B6
:100010008B0500088B0500088B0500080000000018
:100020000000000000000000000000008B05000838
:100030008B050008000000008B0500086D08000813
:100040008B0500088B0500088B0500088B05000850
:100050008B0500088B0500088B0500088B05000840
:100060008B0500088B0500088B0500088B05000830
:100070008B0500088B0500088B0500088B05000820
:100080008B0500088B0500088B0500088B05000810
:100090008B0500088B0500088B0500088B05000800
:1000A0008B0500088B0500088B0500088B050008F0
:1000B0008B0500088B0500088B0500088B050008E0
:1000C0008B0500088B0500088B0500088B050008D0
:1000D0008B0500088B0500088B0500088B050008C0
:1000E0008B0500088B0500088B0500088B050008B0
:1000F0008B0500088B0500088B0500088B050008A0
:100100008B0500088B0500088B0500088B0500088F
:100110008B0500088B0500088B0500088B0500087F
:100120008B0500088B0500088B0500088B0500086F
:100130008B0500088B0500088B0500088B0500085F
:100140008B0500088B0500088B0500088B0500084F
:100150008B0500088B0500088B0500088B0500083F
:100160008B0500088B0500088B0500088B0500082F
:100170008B0500088B0500088B0500088B0500081F
:100180008B0500088B0500082DE9F04781EAE17432
:10019000A4EBE17480EAE076A6EBE076A5B24FEA44
:1001A00016484FEA144CB6B206FB0CF96E4306EB48
:1001B000094708FB05FAB74207EB0A444FEA1A451C
:1001C0002CBF0026012605EB1945BC4238BF01367D
:1001D00008FB0C55AD1970B100290CD0D4BF00211B
:1001E00001210028D4BF084681F0010018B1644203
:1001F000ED4304B9013515601C60BDE8F08707B513
:1002000001AB6A46FFF7C0FF9DF80700009B40EA7C
:1002100003200EBD064BDA88D2F1010138BF002160
:1002200041701B89D3F1010238BF002282707047F0
:10023000C8000020F8B5304BD9881C89D1F10102E3
:1002400038BF0022D4F1010038BF00204D1CAEB2EF
:10025000092E88BF0026671CB9B2B1F57A7F28BF86
:1002600000219A72D872DE801981244B244C1D68BB
:10027000E06C2946FFF7C3FF1F4A666A927A12B103
:10028000204F801B386094F86A1011B11E4B18780B
:1002900003E00120082100F0D1FA174CE67A0EB1F4
:1002A000184F7860154BD9681C6A1E468842D4BF27
:1002B0000021012196F8226014F0FF1F104C0CBFA2
:1002C0001A69226C0D4BCFB20EB1246C01E05C6850
:1002D00014191C61094B002F08BF2A461A60D86008
:1002E0009A689860064883F8221090F853105A6074
:1002F00083F82010F8BD00BFC80000209000002047
:1003000000000020BC000020B9000020294B2A4A30
:10031000986911698842D4BF0020012010B510B936
:1003200093F8211009B1516900E0D969234B1B688A
:1003300083EAE372A2EBE3728A421F4AACBF5468BD
:100340001468002B03DB0CBF0023012301E04FF0F6
:10035000FF335C43174A184B08B1586901E09868AD
:100360000818916193F85110D06182F82110144A55
:1003700014609A6A944204DA0F4BDA6A9442A8BF76
:10038000224603200D21003218BF012200F062FA3C
:100390000948036B64429C4203DA436B9C42A8BF4A
:1003A000234603200C211A1C18BF0122BDE810406F
:1003B00000F050BA9000002000000020BC00002097
:1003C0008C0000201D4A1E4B51685869814210B5AF
:1003D00018DC1C4C207800282DD093F8254093F889
:1003E000230000EB440493F8240000EB4404164877
:1003F000041994F8570094F85F401072547283F80F
:10040000250018E001230E480E4A41610E49137081
:1004100091F8674080F8234080F82440074C03207F
:100420000F21627A00F016FA227A03200E21BDE82D
:10043000104000F00FBA0023E5E700BFBC00002029
:1004400090000020B8000020000000202DE9F341BA
:100450000C27DFF83081454D4548464E00213A468D
:1004600000F0D8FA00213A46404600F0D3FA0021C5
:100470002822284600F0CEFA3F4B404800241C704A
:1004800004604FF4807101202246234600940194B9
:1004900000F0B4F996F8541096F8552088F8081032
:1004A0000320234688F809204FF4004101220094DC
:1004B000019400F0A3F903200F21012200F0CAF9F2
:1004C0000320012223464FF400510094019400F0D0
:1004D00095F903200D21012200F0BCF9032001222F
:1004E00023464FF480410094019400F087F90320E3
:1004F0000E21012200F0AEF90320234601224FF421
:1005000080510094019400F079F9032039460122CA
:1005100000F0A0F91A4B306AF16896F850201C7070
:100520002860B369F069A96185F8212096F8681000
:1005300096F86920EB61686196F8563096F86B0082
:1005400085F8231085F82420B16B85F8253085F8CF
:100550002200F26B96F85230706C6960A960EA6014
:1005600085F820302861BDE8FC8100BF90000020A4
:10057000C800002000000020B90000208C000020EE
:10058000B8000020BC0000207047FEE708B500233B
:100590000C4A0D499818884204D20C4819589950B1
:1005A0000433F5E70A480B494FF000028842B8BF10
:1005B00040F8042BFFF6FAAF00F00EF8BDE8084053
:1005C00000F0FEB90000002080000020680B000849
:1005D00080000020DC000020374BD3F8882042F454
:1005E0007000C3F88800354B1968002041F0010203
:1005F0001A609860196821F0847222F48031304AC0
:1006000019605A60196882B021F480221A60D8609B
:1006100000900190186840F480311960274B1A68E7
:1006200002F40030019000994A1C0092019818B918
:100630000099B1F5A06FF1D11B6813F4003218BF17
:10064000012201920198012805D01B4A4FF0006059
:10065000906002B07047194B1A48196C41F08052F3
:100660001A64016841F48042026098689860996851
:1006700041F400429A609868134A40F4A05199608E
:100680005A60186840F08071196018680B4A81013F
:10069000FBD50E4B40F205611960906820F0030114
:1006A0009160936843F002009060044A916801F001
:1006B0000C03082BF9D1C8E700ED00E00038024038
:1006C000103000240070004019544007003C0240E4
:1006D000184B194A996801F00C00042803D0082827
:1006E00003D0164B19E0164B17E059685A6811F4FD
:1006F000800F596814BF124B104B02F03F00B3FB40
:10070000F0F30C48C1F3881241685343C1F301422E
:10071000501C4100084AB3FBF1F30648136081689E
:10072000084AC1F303130449D05C0B6823FA00F3B1
:100730000B607047003802407C0000200024F40069
:1007400000127A006C0000202DE9F0410F680023B0
:10075000012202FA03F202EA0705954232D15A0059
:100760000324066804FA02F4E443264006600E7986
:10077000D0F800C006FA02F8013E48EA0C0C012E3F
:10078000C0F800C015D8866891F805C0264086607C
:1007900086680CFA02FC4CEA06068660466826EA81
:1007A000050545608D79466805FA03F5ADB2354318
:1007B0004560C5682C40C460CD79C46805FA02F272
:1007C0002243C2600133102BC2D1BDE8F08103691E
:1007D00019420CBF0020012070470AB10183704705
:1007E00041837047044B1A6B09B1104301E022EAC0
:1007F00000001863704700BF00380240F7B50D468F
:100800000121044601FA00F01F461646FFF7EAFFF1
:100810009DF8240008499DF820308DF8070051F814
:100820002400009569468DF804608DF805708DF8F8
:100830000630FFF789FFFEBD440B0008044A012380
:1008400003FA01F152F8200089B2FFF7C0BF00BFE0
:10085000440B0008012303FA01F1034B53F8200075
:1008600089B2FFF7BABF00BF440B000810B5084CAF
:1008700023680BB900F056F8064A20681368411C3B
:100880009942216002D302490020086010BD00BFD8
:10089000D8000020D40000201C4B1D4AD3ED007A64
:1008A000F8EE670A6FF07F4120EE800ABCEEC01AB6
:1008B00011EE103A8B4219D9B8EE417ADFED151AD4
:1008C00087EE212AFCEEC22A12EE900A0130106057
:1008D000B3FBF0F28A4215D8511E0F4A0F4B5160FC
:1008E000F020002183F82300916009E000211160CD
:1008F000094A581E094B5060F02083F8230091608C
:1009000007201060064B00221A6070477C00002010
:10091000D4000020FFFF7F4B10E000E000ED00E07E
:10092000D800002037B5234C23785A1C227023B1FD
:1009300021492370012008603BE001A8FFF76AFC11
:10094000FFF778FC2078411E21709DF805401CB906
:100950009DF8061041B912E0184A5378581C50709F
:10096000002BF5D0012405E0144CA3785A1CA2708A
:10097000022423B1114A10491355012008600124B3
:100980000C4BE05CA8B90D4D615D79B10122022CE0
:10099000E25402D0FFF7BAFC01E0FFF713FD05496E
:1009A0002B5D0A5D581E531E28550B550134032C30
:1009B000E6D13EBD8300002088000020800000209A
:1009C00037B5FFF785FE114B1C6800202060FFF74C
:1009D0003DFD9FED0F0AFFF75FFF2168D1F1010296
:1009E00038BF00228DF8072062B69DF807503DB150
:1009F0002568D5F1010338BF00238DF80730F4E7EF
:100A0000FFF7C2FD72B628463EBD00BF400B00088E
:100A100017B7D138F0B48407034600F08E80541E17
:100A2000002A00F08880E507CEB211D41A46671E6E
:100A300002F8016B1346154692070FD0002C7AD0AE
:100A400003F8016B9A073C461D4607D0013CEDE7D1
:100A5000034603F8016B9A071D46F7D1032C52D9C0
:100A6000CEB246EA06270F2C47EA07432DD9A4F158
:100A7000100217460F2FC2F300162B606B60AB609D
:100A8000EB6005F1100216D93EB1103F13605360C0
:100A90009360D36010320F2F0DD9203F02F1100662
:100AA000136053609360D360136153619361D361AA
:100AB00020320F2FF1D8A4F1100222F00F0204F01F
:100AC0000F041032032C15441DD9271F3E462A4619
:100AD000032E42F8043BC7F380070DD927B1043E2B
:100AE000032E42F8043B07D91746083E47F8043B5B
:100AF00053603A1D032EF7D8231F23F00302131D62
:100B000004F00304ED18B4B12B46C9B203F8011B7D
:100B10002C19ED436219A34202F001050BD01DB15F
:100B200003F8011BA34206D01A4602F8011B5970B4
:100B3000531CA342F8D1F0BC7047054614468DE71C
:100B4000C8000020000002400004024000080240EB
:100B5000000C024000100240001402400018024045
:080B6000001C024000200240CD
:100B6800000000000100000032000000000000004A
:100B7800F401000000000000000000000000000078
:100B880000000000DC05000001000000000000007B
:100B9800010000000000000000000000000000004C
:100BA80000000000000000000200000000000064D7
:100BB8000100010000010000000101010001000125
:100BC8000100000001000101000000000000000019
:100BD800000000000102030406070809007A030A5E
:040000050800058D5D
:00000001FF
